:060000000A128A11EE2F26
:100C3A003F3406345B344F3466346D347D340734C4
:100C4A007F346F347E088A007F0882000A128A1174
:100C5A0027260A128A118000840A04087D060319CD
:100C6A000034FF0A0319FE0A2B2EFD01FB1F3E2E3C
:100C7A003F2E462EFA09FB09FA0A0319FB0A01302C
:100C8A00FD00F91F492E4A2E4F2EF809F909F80AD4
:100C9A000319F90A780879040319542E552E822E5D
:100CAA000130FC00612E01300310F80DF90DFF3EF2
:100CBA00031D592E0130FC07F91F642E652E582E8C
:100CCA0079087B02031D6B2E78087A02031C6E2EAC
:100CDA006F2E752E7808FA027908031CFB03FB02B3
:100CEA0001300310F90CF80CFF3E031D762E01307B
:100CFA00FC02031D812E822E652E7D080319862E85
:100D0A00872E8C2EFA09FB09FA0A0319FB0A7B08BB
:100D1A00F9007A08F8000800F501F11F952E962EC1
:100D2A009D2EF009F109F00A0319F10A0130F500C4
:100D3A00F31FA02EA12EA82EF209F309F20A031915
:100D4A00F30A0130F506F601F70170087104031978
:100D5A00AF2EB02EE52E0130F400BC2E0130031068
:100D6A00F00DF10DFF3E031DB42E0130F407F11F03
:100D7A00BF2EC02EB32E01300310F60DF70DFF3E25
:100D8A00031DC12E71087302031DCD2E7008720255
:100D9A00031CD02ED12ED82E7008F2027108031C23
:100DAA00F303F302761401300310F10CF00CFF3E4A
:100DBA00031DD92E0130F402031DE42EE52EC02EA8
:100DCA0075080319E92EEA2EEF2EF609F709F60A35
:100DDA000319F70A7708F1007608F000080083166D
:100DEA00031387018801FF308312031387008801E8
:100DFA00AB01AC010A30F8000030F900E830F0002D
:100E0A000330F1002C08F3002B08F2000A128A11B1
:100E1A0091260A128A117108FB007008FA000A1258
:100E2A008A113A260A128A11790883120313A20038
:100E3A007808A1000A30F8000030F9006430F000A8
:100E4A000030F1002C08F3002B08F2000A128A1174
:100E5A0091260A128A117108FB007008FA000A1218
:100E6A008A113A260A128A11790883120313A400F6
:100E7A007808A3000A30F8000030F9000A30F000C0
:100E8A000030F1002C08F3002B08F2000A128A1134
:100E9A0091260A128A117108FB007008FA000A12D8
:100EAA008A113A260A128A11790883120313A600B4
:100EBA007808A5000A30F8000030F9002C08FB0079
:100ECA002B08FA000A128A113A260A128A1179089C
:100EDA0083120313A8007808A700A901AA01F73012
:100EEA0083120313870021082D3E84008313000810
:100EFA008800C73083120313A000832FA00B822F10
:100F0A00862FFB3083120313870023082D3E8400AB
:100F1A00831300088800C73083120313A000952F9B
:100F2A00A00B942F982FFD308312031387002508F6
:100F3A002D3E8400831300088800C73083120313F0
:100F4A00A000A72FA00BA62FAA2FFE3083120313EF
:100F5A00870027082D3E8400831300088800C730C5
:100F6A0083120313A000B92FA00BB82FBC2F013096
:100F7A0083120313A9070318AA0A0030AA072A082A
:100F8A00803AFF0080307F02031DCD2F0A302902EC
:100F9A00031CD02FD12F742F1030F8002730F900FE
:100FAA00831203132B08013EFA002C080318013E92
:100FBA00003EFB000A128A113A260A128A1179089F
:100FCA0083120313AC007808AB00FF2E0A128A11B1
:100FDA00002883133730FD000630FE001D30FF0065
:100FEA002D3084000A128A112B260A128A118301D3
:060FFA000A128A11F42E18
:04400E00F22FFF3F4F
:00000001FF
