:060000000A128A110C280F
:10000800FE00030EF3000A08F4000A128A11FE2A01
:100018000A128A110F2883134D30FD000330FE00A9
:100028003D30FF00423084000A128A111B230A1255
:100038008A11CD01CE0183010A128A112328831661
:10004800031387018801FF30860083120313870199
:10005800FF3088008316031788018901831603136C
:1000680001087F3981008B108B170B16011383123F
:1000780003134C03031D4128422840290A30A400D9
:100088000030A500E830F5000330F6004E08F8000F
:100098004D08F7000A128A1140220A128A117608BE
:1000A80083120313A7007508A6000A128A11A52255
:1000B8000A128A11831203132508B9002408B8000C
:1000C8000A30A4000030A5006430F5000030F600C6
:1000D8004E08F8004D08F7000A128A1140220A1249
:1000E8008A11760883120313A7007508A6000A125E
:1000F8008A11A5220A128A11831203132508BB004C
:100108002408BA000A30A4000030A5000A30F5001F
:100118000030F6004E08F8004D08F7000A128A1160
:1001280040220A128A11760883120313A700750861
:10013800A6000A128A11A5220A128A118312031331
:100148002508BD002408BC000A30A4000030A50022
:100158004E08A7004D08A6000A128A11A5220A1205
:100168008A11831203132508BF002408BE00C001AA
:10017800C10108308312031387003808423E840007
:10018800831300088800073083120313B7007C30FC
:10019800B600B60BCD28B70BCD280000043083126B
:1001A800031387003A08423E84008313000888003E
:1001B800073083120313B7007C30B600B60BE22871
:1001C800B70BE228000002308312031387003C08B3
:1001D800423E84008313000888000730831203130B
:1001E800B7007C30B600B60BF728B70BF72800002D
:1001F80001308312031387003E08423E84008313B4
:1002080000088800073083120313B7007C30B6005B
:10021800B60B0C29B70B0C2900000130831203130D
:10022800C0070318C10A0030C1074108803AFF001F
:1002380080307F02031D22290A304002031C252931
:100248002629BD28013083120313CD070318CE0ACF
:100258000030CE074E08803AFF00A7307F02031D0A
:10026800372910304D02031C3A293B293B288312B9
:100278000313CD01CE013B280A128A1149210A1223
:100288008A113B280A128A110C280A308312031398
:10029800A4000030A500E830F5000330F6004E0851
:1002A800F8004D08F7000A128A1140220A128A1132
:1002B800760883120313A7007508A6000A128A118C
:1002C800A5220A128A11831203132508AD002408F7
:1002D800AC000A30A4000030A5006430F5000030FE
:1002E800F6004E08F8004D08F7000A128A1140225D
:1002F8000A128A11760883120313A7007508A6004C
:100308000A128A11A5220A128A11831203132508D8
:10031800AF002408AE000A30A4000030A5000A305F
:10032800F5000030F6004E08F8004D08F7000A12F4
:100338008A1140220A128A11760883120313A70031
:100348007508A6000A128A11A5220A128A118312B8
:1003580003132508B1002408B0000A30A4000030B7
:10036800A5004E08A7004D08A6000A128A11A5226A
:100378000A128A11831203132508B3002408B20055
:10038800B401B50108308312031387002C08423EDC
:100398008400831300088800073083120313AB001E
:1003A8007C30AA00AA0BD629AB0BD6290000043052
:1003B8008312031387002E08423E8400831300082B
:1003C8008800073083120313AB007C30AA00AA0B05
:1003D800EB29AB0BEB2900000230831203138700D3
:1003E8003008423E840083130008880007308312D7
:1003F8000313AB007C30AA00AA0B002AAB0B002A1F
:10040800000001308312031387003208423E840043
:10041800831300088800073083120313AB007C3075
:10042800AA00AA0B152AAB0B152A0000013083126B
:100438000313B4070318B50A0030B5073508803A26
:10044800FF0080307F02031D2B2A0A303402031C70
:100458002E2A2F2AC629FF3083120313CD0703182B
:10046800CE0AFF30CE07CE1F3A2A3B2A3F2A0F304A
:10047800CD002730CE00080083120313A101F61F18
:10048800462A472A4E2AF509F609F50A0319F60AF3
:100498000130A100F81F512A522A592AF709F809F0
:1004A800F70A0319F80A0130A106A201A301750889
:1004B80076040319602A612A962A0130A0006D2A61
:1004C80001300310F50DF60DFF3E031D652A0130BE
:1004D800A007F61F702A712A642A01300310A20DA2
:1004E800A30DFF3E031D722A76087802031D7E2A9B
:1004F80075087702031C812A822A892A7508F7025F
:100508007608031CF803F802221401300310F60CD5
:10051800F50CFF3E031D8A2A0130A002031D952A0F
:10052800962A712A210803199A2A9B2AA02AA20925
:10053800A309A20A0319A30A2308F6002208F50052
:10054800080083120313A901A71FAB2AAC2AB32AF8
:10055800A609A709A60A0319A70A0130A900A51F19
:10056800B62AB72ABC2AA409A509A40A0319A50A08
:10057800240825040319C12AC22AEF2A0130A80039
:10058800CE2A01300310A40DA50DFF3E031DC62A77
:100598000130A807A51FD12AD22AC52A2508270273
:1005A800031DD82A24082602031CDB2ADC2AE22A97
:1005B8002408A6022508031CA703A702013003107C
:1005C800A50CA40CFF3E031DE32A0130A802031D5D
:1005D800EE2AEF2AD22A29080319F32AF42AF92A3B
:1005E800A609A709A60A0319A70A2708A500260825
:1005F800A40008008B1C012B022B102B8312031361
:100608004C08F000FF300A128A112A230A128A11B4
:1006180083120313CC008B1074088A00730E8300B6
:10062800FE0E7E0E09007E088A007F0882000A12EC
:100638008A1117230A128A118000840A04087D0689
:1006480003190034FF0A0319FE0A1B2BF200F101FB
:10065800721C2F2B302B322B7008F1070310F00D72
:100668000310F20C7208031D3A2B3B2B2C2B71083C
:100678000800C034F934A434B03499349234823444
:08068800F83480349034013491
:04400E00F22FFF3F4F
:00000001FF
