:100000000A128A11CD2F0330831603178800890145
:100010008130831203139F008030831603139F00E7
:100020000800F901FA0176088400831300088400AF
:100030000A128A150A200A128A112A3A031D212857
:1000400022284E2876088400013080077708840033
:100050000008FF00023080077F0884000008F900D4
:10006000840A0008FA005F287A08F1007908F00095
:100070000A30F2000030F3000A128A155C260A12D8
:100080008A1178087007F9000030031801307107F1
:10009000FA00760884000130831380077608840014
:1000A000000884000A128A150A200A128A11D03E1A
:1000B000F8000A307802031C5E285F2834287A088A
:1000C000F7007908F600080083120313671C6928FB
:1000D0006A2875282A08A0002808A1002908A2007B
:1000E0000A128A1581260A128A1183120313AC1F81
:1000F0007A287B287D28AB01AC01AD01AE019728A1
:100100002030F0000030F100831203132808F200C1
:100110002908F3000A128A11D7220A128A11013023
:1001200083120313AD070318AE0A0030AE072E0882
:10013000803AFD002C08803A7D02031DA1282B087F
:100140002D02031CA428A5288028831203136718F6
:10015000AA28AB28B6282A08A0002808A100290848
:10016000A2000A128A1581260A128A110800F500D7
:10017000831203135E08840083175F1C831301300E
:10018000F30060080739013EC7280310F30DFF3E56
:10019000031DC5287308FF3A800575080A128A11E5
:1001A0001D240A128A11831203135E088400831728
:1001B0005F1C83130130F300600CF400F40C740C2A
:1001C0000739013EE5280310F30DFF3E031DE32828
:1001D000730880040630F4003030F300F30BEE288F
:1001E000F40BEE280000831203135E0884008317CB
:1001F0005F1C83130130F300600CF400F40C740CEA
:100200000739013E05290310F30DFF3E031D0329A5
:100210007308FF3A80050800700884008313000803
:10022000F300710A15290310F30CFF3E031D132977
:100230007308F6000130F605F5017208840000032A
:10024000031D232924295A297608031D2829292931
:100250005A292730F400F530F300F30B2D29F40B65
:100260002D297008840083130008F300710A3A29CD
:100270000310F30CFF3E031D382973184029412950
:100280005A290130F500700884000008F300710A53
:100290004B290310F30CFF3E031D4929731C512900
:1002A000522943292730F400F530F300F30B562987
:1002B000F40B5629720884007608831380007508B1
:1002C0000800003083120313AB000030AA00003096
:1002D000A9000030A80023082204210420040319E7
:1002E00072297329BE290130AC0081290130FD003B
:1002F0000310A00DA10DA20DA30DFD0B7829013057
:10030000AC07A31F8429852976290130FD0003103D
:10031000A80DA90DAA0DAB0DFD0B872923082702F7
:10032000031D9C2922082602031D9C292108250261
:10033000031D9C2920082402031C9F29A029AF2902
:100340002008A4022108031C210FA5022208031C77
:10035000220FA6022308031C230FA7022814013032
:100360000310A30CA20CA10CA00CFF3E031DB0298E
:100370000130AC02031DBD29BE2985292B08A3002D
:100380002A08A2002908A1002808A00008000130BE
:1003900083120313B3006408B5006308B4001F3070
:1003A000B6000030B70083160313E4010D2AFF30B6
:1003B000B6070318B70AFF30B7073608C53E8400F2
:1003C0000A30F0000030F1003208F3003108F2008A
:1003D0000A128A15AC260A128A117008303E83135D
:1003E000800083120313B301FF30B4070318B50A6A
:1003F000FF30B5070A30F0000030F1003208F3009A
:100400003108F2000A128A1526270A128A11710889
:1004100083120313B2007008B10083123608370448
:100420000319132A142A322A31083204031D192A07
:100430001A2AD7293308031D1E2A1F2AD72935084F
:10044000803AFF0080307F02031D282A01303402E9
:10045000031C2B2A2C2A322A83120313E718312A71
:10046000322AD729831203132F08A8003008A900C5
:100470003608C53EAA003508AC003408AB000A12A5
:100480008A1164200A128A110800F50083120313EE
:100490005E08840083175F1C83130130F30060083B
:1004A0000739013E552A0310F30DFF3E031D532A61
:1004B000730880047508F30004300310F30CFF3E4A
:1004C000031D5D2A73080F390A128A111D240A12AE
:1004D0008A11831203135E08840083175F1C831341
:1004E0000130F300600CF400F40C740C0739013E89
:1004F0007B2A0310F30DFF3E031D792A7308800445
:100500000D30F300F30B822A831203135E0884007C
:1005100083175F1C83130130F300600CF400F40CAC
:10052000740C0739013E962A0310F30DFF3E031D9C
:10053000942A7308FF3A800575080F390A128A1148
:100540001D240A128A11831203135E088400831784
:100550005F1C83130130F300600CF400F40C740C86
:100560000739013EB52A0310F30DFF3E031DB32AE0
:10057000730880040D30F300F30BBC2A83120313BD
:100580005E08840083175F1C83130130F300600C46
:10059000F400F40C740C0739013ED02A0310F30D5B
:1005A000FF3E031DCE2A7308FF3A8005080072083B
:1005B00073040319DC2ADD2AE32A72087304031D7D
:1005C000E22AE32AEA2A70080A128A15E6250A12A4
:1005D0008A11702B7208093EF40073080318013E5B
:1005E000003EF500740884008317751C831300080F
:1005F000F600840A0008F700760877040319012B37
:10060000022B342B7208093EF40073080318013ED4
:10061000003EF500740884008317751C83130008DE
:10062000F600840A0008F7007208023EF80073081A
:100630000318013E003EF900780884008317791CF6
:1006400083130008FA00840A0008FB007B08803A44
:10065000FC007708803A7C02031D302B76087A0272
:100660000318332B342B702B720884008317731CF0
:1006700083130008F400840A0008F5007208023EA3
:10068000F60073080318013E003EF7007608840068
:100690008317771C831300087407F9007508F800A6
:1006A0000318F80A801F552BF8037808FA00790818
:1006B000840083177A1C8313700880007208023E3E
:1006C000F40073080318013E003EF500740884002E
:1006D0008317751C831301308007840A0318800A6E
:1006E00008005E308400760883138000840A77084F
:1006F0008000840A78088000840A79088000840ACF
:100700007A0880000030831203135F06031D8A2BD2
:1007100005305E06031D8D2B8E2B922B8316031343
:100720008501AD2B00305F06031D982B06305E0659
:10073000031D9B2B9C2BA02B831603138601AD2B33
:1007400000305F06031DA62B07305E06031DA92B94
:10075000AA2B1C2C8316031387011A30FC00F830D7
:10076000FB00FB0BB12BFC0BB12B000003300A127A
:100770008A11B7200A128A110730FC007D30FB0075
:10078000FB0BC02BFC0BC02B03300A128A11B720C5
:100790000A128A111530FC00C630FB00FB0BCE2B71
:1007A000FC0BCE2B000003300A128A11B7200A126C
:1007B0008A1102300A128A11B7200A128A110230F5
:1007C0000A128A11B7200A128A1108300A128A11F5
:1007D000B7200A128A1100300A128A11B7200A12B1
:1007E0008A1106300A128A11B7200A128A110830BB
:1007F000FD007D157D08FB0004300310FB0CFF3E5F
:10080000031DFD2B7B080F390A128A11B7200A122B
:100810008A117D080F390A128A11B7200A128A112B
:1008200000300A128A11B7200A128A1101300A1206
:100830008A11B7200A128A110800F200721C212CBA
:10084000222C372C831203135E08840083175F1C4D
:1008500083130130F00061080739013E312C031089
:10086000F00DFF3E031D2F2C700880044C2C8312CA
:1008700003135E08840083175F1C83130130F000AC
:1008800061080739013E462C0310F00DFF3E031DA1
:10089000442C7008FF3A8005F21C4F2C502C662C1B
:1008A0005E08840083175F1C83130130F000610C25
:1008B000F100F10C710C0739013E602C0310F00DB2
:1008C000FF3E031D5E2C700880047C2C5E088400B3
:1008D00083175F1C83130130F000610CF100F10CF1
:1008E000710C0739013E762C0310F00DFF3E031DFD
:1008F000742C7008FF3A8005721D7F2C802C932C7D
:100900005E08840083175F1C83130130F0006208C7
:100910000739013E8D2C0310F00DFF3E031D8B2C7B
:1009200070088004A62C5E08840083175F1C831364
:100930000130F00062080739013EA02C0310F00DD1
:10094000FF3E031D9E2C7008FF3A8005F21DA92C66
:10095000AA2CC02C5E08840083175F1C831301300F
:10096000F000620CF100F10C710C0739013EBA2C59
:100970000310F00DFF3E031DB82C70088004D62C28
:100980005E08840083175F1C83130130F000620C43
:10099000F100F10C710C0739013ED02C0310F00D61
:1009A000FF3E031DCE2C7008FF3A8005080083121D
:1009B00003133A0884008313000884000A128A157E
:1009C0000A200A128A11253A031DE72CE82C8F2DE4
:1009D0003A08840001308007E301E4010030E700B9
:1009E000FF30E500FF30E600C2010C2DE7143A08A5
:1009F0008400013080070C2D0130C2000C2D3A0814
:100A00008400000884000A128A150A200A128A113A
:100A1000303A0319F62CFC2C42080319102D112D25
:100A2000FF2C3A08F6003B08F7000A128A11112041
:100A30000A128A11770883120313E4007608E30090
:100A4000E41F232D242D2A2D6714E309E409E30A6A
:100A50000319E40A3A08840083130008C30043081A
:100A600084000A128A150A200A128A11753A031D97
:100A70003A2D3B2D672D3B0884000008FF00023013
:100A800080077F0884000008BE00840A0008BF00B9
:100A90003A0884004308013E80005C2D3808AF000E
:100AA0003908B0003F08B2003E08B1000A128A11AE
:100AB000C7210A128A11A82D430884000A128A1538
:100AC0000A200A128A11753A03194E2D672D3A0829
:100AD0008400000884000A128A150A200A128A116A
:100AE000253A031D742D752D872D3A088400013099
:100AF00080072530F0000030F1003808F200390896
:100B0000F3000A128A11D7220A128A11A82D831221
:100B100003133A088400013083138007A82D3A0894
:100B20008400000884000A128A150A200A128A1119
:100B3000BC00BD013C08F0003D08F1003808F2009F
:100B40003908F3000A128A11D7220A128A11872D56
:100B500008000A128A1103200A128A11FF30831634
:100B6000031386008113FF309500B0308400831298
:100B70000313680883138000840A69088000840ACC
:100B80006A088000840A6B088000840A6C08800070
:100B9000763084008316031330088000840A3108FD
:100BA0008000840A32088000840A33088000840AA6
:100BB000340880000A128A1171230A128A118316DE
:100BC0000313C301C4010130BF000130C00006306F
:100BD000F000F101BF30F2000A128A110C210A1252
:100BE0008A11003A0319F52DF62D002E83160313F2
:100BF00043080319FC2DFE2D0130FF2D0030C300EA
:100C00000630F000F101F10AC030F2000A128A1138
:100C10000C210A128A11003A03190F2E102E1B2ED6
:100C2000013083160313C40703304402031C192E3A
:100C30001A2E1B2EC4018316031343080A128A15A9
:100C4000F4250A128A11710883160313C200700872
:100C5000C10000300A128A11B7200A128A1101302D
:100C60000A128A11B7200A128A1108300A128A1150
:100C7000B7200A128A1100300A128A11B7200A120C
:100C80008A11831603134308031D472E482E522E44
:100C90000130F6008030F7000A128A15E4260A12A5
:100CA0008A115B2E0C30F6008030F7000A128A158C
:100CB000E4260A128A110C300A128A11B7200A128D
:100CC0008A1100300A128A11B7200A128A1183167B
:100CD00003134408031D6D2E6E2E472F0030831220
:100CE0000313A3000030A2000330A100FF30A000D6
:100CF000831603134108F0004208F100F201F301EA
:100D00000030F7000030F600C330F5005030F4003A
:100D10000A128A1568270A128A11730883120313AC
:100D2000A7007208A6007108A5007008A4000A12A6
:100D30008A1161210A128A11831203132308831670
:100D40000313BE0083120313220883160313BD008E
:100D500083120313210883160313BC0083120313A9
:100D6000200883160313BB00003083120313A30073
:100D70000030A2002730A1001030A000831603131A
:100D80003E0883120313A700831603133D08831242
:100D90000313A600831603133C0883120313A50054
:100DA000831603133B0883120313A4000A128A114B
:100DB00061210A128A118312031321088316031377
:100DC000B60083120313200883160313B500003006
:100DD00083120313A3000030A2000030A10064308E
:100DE000A000831603133E08F7003D08F6003C08F8
:100DF000F5003B08F4000030F3000030F20027302B
:100E0000F1001030F0000A128A15AE270A128A117A
:100E1000730883120313A7007208A6007108A500C7
:100E20007008A4000A128A1161210A128A11831221
:100E30000313210883160313B80083120313200839
:100E400083160313B700A03083120313C9001730B1
:100E5000CA0083160313360883120313CC008316CB
:100E60000313350883120313CB00831603133808CA
:100E700083120313CE008316031337088312031360
:100E8000CD000A128A1539260A128A11B52F440399
:100E9000031D4B2F4C2F9E2F003083120313A300F2
:100EA0000030A2000330A100FF30A000831603131E
:100EB0004108F0004208F100F201F3010030F700B0
:100EC0000030F6000030F5006430F4000A128A1594
:100ED00068270A128A11730883120313A700720885
:100EE000A6007108A5007008A4000A128A116121E9
:100EF0000A128A1183120313210883160313BA00FE
:100F000083120313200883160313B900A030831241
:100F10000313C9002830CA00831603133A0883124A
:100F20000313CC0083160313390883120313CB0079
:100F30000A128A1539260A128A11B52FA030831297
:100F40000313C9002130CA00831603134208831219
:100F50000313CC0083160313410883120313CB0041
:100F60000A128A1539260A128A11A030F6000030BA
:100F7000F7000A128A15E4260A128A11C330831276
:100F80000313DD00CC30DC00DC0BC42FDD0BC42FE1
:100F90000000E72D0A128A1100280A128A15E72597
:100FA0000A128A11E8000A128A15E8250A128A1123
:100FB000E9000A128A15E9250A128A11EA000A12C2
:100FC0008A15EA250A128A11EB000A128A15EB2506
:100FD0000A128A11EC008313C5308400E5300A122E
:100FE0008A15EC250A128A115E30840068300A12D4
:100FF0008A15EC250A128A1183010A128A11A92D79
:10100000FF1B0A2883137F1883170008840A03191B
:10101000FF0A080008308A000408840A82070034A6
:1010200056346F346C34743461346A34653420342B
:1010300031343A34003456346F346C34743461349F
:101040006A346534203432343A340034253475340B
:101050002E34253430343234753420345634003450
:101060002534753420344134443443340034253439
:0A1070007534203425342534003493
:101BCC000800073400341A342C343E34640080018D
:101BDC00840A0406031900340406ED2DF30073087F
:101BEC000F39F20002300310F20DFF3E031DF92DE8
:101BFC00831203131F08C33972049F000330F200D1
:101C0C00F20B062E831203139F149F180E2E0F2E09
:101C1C000B2E1E08F100831603131E08F00008009B
:101C2C00831203134608C800282E4408B800450840
:101C3C00B9004830BA004708BB000A128A11D724F1
:101C4C000A128A1583120313480884000A128A1593
:101C5C000A200A128A15003A031D352E362E1B2E29
:101C6C00C401C50108004B3083120313D00049088E
:101C7C00D1000030D200D301D401DA01DB015130A4
:101C8C00C4000030C5004A08C6005030C7000A1214
:101C9C008A1516260A128A1583120313530849074C
:101CAC00CF004F088400831380010800F401F50174
:101CBC00701C612E622E682E7208F4070318F50A48
:101CCC007308F50701300310F20DF30DFF3E031DF1
:101CDC00692E01300310F10CF00CFF3E031D702E29
:101CEC0070087104031D7B2E7C2E5E2E7508F1008E
:101CFC007408F000080083120313A601A7019E2E9E
:101D0C002508A300A4012308F0002408F1002108F1
:101D1C00F2002208F3000A128A11D7220A128A153D
:101D2C00013083120313A6070318A70A0030A70774
:101D3C0026082007A3002308840083130008A500AD
:101D4C002508031DAA2EAB2E862E080070087104E0
:101D5C000319B12EB22EDF2E0130F400BE2E01304D
:101D6C000310F00DF10DFF3E031DB62E0130F407EC
:101D7C00F11FC12EC22EB52E71087302031DC82E81
:101D8C0070087202031CCB2ECC2ED22E7008F202DD
:101D9C007108031CF303F30201300310F10CF00C77
:101DAC00FF3E031DD32E0130F402031DDE2EDF2E69
:101DBC00C22E7308F1007208F0000800FB01FC0150
:101DCC00092F7B087607F9007708F8000318F80A42
:101DDC00FB1FF12EF8037808FA007A08831203131C
:101DEC00FF00790884000A128A1500200A128A154D
:101DFC000A128A1145220A128A150130FB070318B0
:101E0C00FC0A0030FC077B087607F9007708F8001D
:101E1C000318F80AFB1F132FF8037808FA007A0846
:101E2C0083120313FF00790884000A128A1500201C
:101E3C000A128A15003A031D242F252FE72E0800BD
:101E4C00F401F5017008710403192D2F2E2F632F47
:101E5C000130F6003A2F01300310F00DF10DFF3E6A
:101E6C00031D322F0130F607F11F3D2F3E2F312F6E
:101E7C0001300310F40DF50DFF3E031D3F2F7108CB
:101E8C007302031D4B2F70087202031C4E2F4F2F31
:101E9C00562F7008F2027108031CF303F30274143A
:101EAC0001300310F10CF00CFF3E031D572F0130D5
:101EBC00F602031D622F632F3E2F7508F100740884
:101ECC00F00008000030FC000030FB000030FA008D
:101EDC000030F900701C732F742F8B2F7408F907C6
:101EEC00750803110318013E03197D2FFA077608B4
:101EFC0003110318013E0319842FFB077708031104
:101F0C000318013E03198B2FFC070130F800031056
:101F1C00F40DF50DF60DF70DF80B8D2F01300310A8
:101F2C00F30CF20CF10CF00CFF3E031D952F730813
:101F3C00720471047004031DA42FA52F702F7C084C
:101F4C00F3007B08F2007A08F1007908F000080031
:101F5C0073087204710470040319B52FB62FF72F90
:101F6C000130F900C42F0130F8000310F00DF10D11
:101F7C00F20DF30DF80BBB2F0130F907F31FC72F30
:101F8C00C82FB92F73087702031DD62F720876025B
:101F9C00031DD62F71087502031DD62F700874020D
:101FAC00031CD92FDA2FE82F7008F4027108031CD8
:101FBC00710FF5027208031C720FF6027308031CF2
:101FCC00730FF70201300310F30CF20CF10CF00C50
:101FDC00FF3E031DE92F0130F902031DF62FF72FE9
:101FEC00C82F7708F3007608F2007508F100740822
:041FFC00F0000800E9
:04400E00F12FFF3F50
:00000001FF
