:060000000A128A11CD2F47
:100008000800073400341A342C343E347008710464
:1000180003190F2810283D280130F4001C2801304E
:100028000310F00DF10DFF3E031D14280130F407F5
:10003800F11F1F282028132871087302031D262882
:1000480070087202031C29282A2830287008F20236
:100058007108031CF303F30201300310F10CF00CD8
:10006800FF3E031D31280130F402031D3C283D28C2
:1000780020287308F1007208F0000800F901FA015D
:10008800760884008313000884000A128A150A205F
:100098000A128A112A3A031D522853287F28760803
:1000A800840001308007770884000008FF000230D0
:1000B80080077F0884000008F900840A0008FA0015
:1000C80090287A08F1007908F0000A30F200003030
:1000D800F3000A128A1594260A128A117808700702
:1000E800F9000030031801307107FA00760884001F
:1000F80001308313800776088400000884000A1200
:100108008A150A200A128A11D03EF8000A307802AD
:10011800031C8F28902865287A08F7007908F600CC
:10012800080083120313671C9A289B28A6282A080C
:10013800A0002808A1002908A2000A128A15B926D9
:100148000A128A1183120313AC1FAB28AC28AE28FD
:10015800AB01AC01AD01AE01C8282030F000003081
:10016800F100831203132808F2002908F3000A1289
:100178008A11B3220A128A11013083120313AD07C0
:100188000318AE0A0030AE072E08803AFD002C088E
:10019800803A7D02031DD2282B082D02031CD52886
:1001A800D628B128831203136718DB28DC28E72830
:1001B8002A08A0002808A1002908A2000A128A1506
:1001C800B9260A128A110800F500831203135E0883
:1001D800840083175F1C83130130F300600807391C
:1001E800013EF8280310F30DFF3E031DF62873089F
:1001F800FF3A800575080A128A11F9230A128A1132
:10020800831203135E08840083175F1C8313013075
:10021800F300600CF400F40C740C0739013E162945
:100228000310F30DFF3E031D1429730880040630E4
:10023800F4003030F300F30B1F29F40B1F290000E2
:10024800831203135E08840083175F1C8313013035
:10025800F300600CF400F40C740C0739013E3629E5
:100268000310F30DFF3E031D34297308FF3A800580
:100278000800003083120313AB000030AA000030DE
:10028800A9000030A800230822042104200403192F
:100298004E294F299A290130AC005D290130FD0013
:1002A8000310A00DA10DA20DA30DFD0B54290130C3
:1002B800AC07A31F6029612952290130FD000310F2
:1002C800A80DA90DAA0DAB0DFD0B63292308270264
:1002D800031D782922082602031D782921082502F2
:1002E800031D782920082402031C7B297C298B29DB
:1002F8002008A4022108031C210FA5022208031CC0
:10030800220FA6022308031C230FA702281401307A
:100318000310A30CA20CA10CA00CFF3E031D8C29FA
:100328000130AC02031D99299A2961292B08A300E1
:100338002A08A2002908A1002808A0000800013006
:1003480083120313B3006408B5006308B4001F30B8
:10035800B6000030B70083160313E301E929FF3024
:10036800B6070318B70AFF30B7073608C43E84003B
:100378000A30F0000030F1003208F3003108F200D2
:100388000A128A110A200A128A117008303E831351
:10039800800083120313B301FF30B4070318B50AB2
:1003A800FF30B5070A30F0000030F1003208F300E2
:1003B8003108F2000A128A1526270A128A117108D2
:1003C80083120313B2007008B10083123608370491
:1003D8000319EF29F0290E2A31083204031DF529E3
:1003E800F629B3293308031DFA29FB29B32935084F
:1003F800803AFF0080307F02031D042A0130340256
:10040800031C072A082A0E2A83120313E7180D2A49
:100418000E2AB329831203132F08A8003008A90055
:100428003608C43EAA003508AC003408AB000A12EE
:100438008A1195200A128A110800F5008312031305
:100448005E08840083175F1C83130130F300600883
:100458000739013E312A0310F30DFF3E031D2F2AF1
:10046800730880047508F30004300310F30CFF3E92
:10047800031D392A73080F390A128A11F9230A123F
:100488008A11831203135E08840083175F1C831389
:100498000130F300600CF400F40C740C0739013ED1
:1004A800572A0310F30DFF3E031D552A73088004D5
:1004B8000D30F300F30B5E2A831203135E088400E9
:1004C80083175F1C83130130F300600CF400F40CF5
:1004D800740C0739013E722A0310F30DFF3E031D09
:1004E800702A7308FF3A800575080F390A128A11B5
:1004F800F9230A128A11831203135E0884008317F2
:100508005F1C83130130F300600CF400F40C740CCE
:100518000739013E912A0310F30DFF3E031D8F2A70
:10052800730880040D30F300F30B982A8312031329
:100538005E08840083175F1C83130130F300600C8E
:10054800F400F40C740C0739013EAC2A0310F30DC7
:10055800FF3E031DAA2A7308FF3A800508007208A7
:1005680073040319B82AB92ABF2A72087304031D31
:10057800BE2ABF2AC62A70080A128A1104200A1243
:100588008A114C2B7208093EF40073080318013EC7
:10059800003EF500740884008317751C8313000857
:1005A800F600840A0008F700760877040319DD2AA4
:1005B800DE2A102B7208093EF40073080318013E66
:1005C800003EF500740884008317751C8313000827
:1005D800F600840A0008F7007208023EF800730863
:1005E8000318013E003EF900780884008317791C3F
:1005F80083130008FA00840A0008FB007B08803A8D
:10060800FC007708803A7C02031D0C2B76087A02DE
:1006180003180F2B102B4C2B720884008317731CA4
:1006280083130008F400840A0008F5007208023EEB
:10063800F60073080318013E003EF70076088400B0
:100648008317771C831300087407F9007508F800EE
:100658000318F80A801F312BF8037808FA00790884
:10066800840083177A1C8313700880007208023E86
:10067800F40073080318013E003EF5007408840076
:100688008317751C831301308007840A0318800AB6
:1006980008005E308400760883138000840A770897
:1006A8008000840A78088000840A79088000840A17
:1006B8007A0880000030831203135F06031D662B3F
:1006C80005305E06031D692B6A2B6E2B83160313F8
:1006D8008501892B00305F06031D742B06305E06EA
:1006E800031D772B782B7C2B831603138601892B0C
:1006F80000305F06031D822B07305E06031D852B25
:10070800862BF82B8316031387011A30FC00F83068
:10071800FB00FB0B8D2BFC0B8D2B000003300A120A
:100728008A11E8200A128A110730FC007D30FB008C
:10073800FB0B9C2BFC0B9C2B03300A128A11E82024
:100748000A128A111530FC00C630FB00FB0BAA2BDD
:10075800FC0BAA2B000003300A128A11E8200A12A7
:100768008A1102300A128A11E8200A128A1102300C
:100778000A128A11E8200A128A1108300A128A110C
:10078800E8200A128A1100300A128A11E8200A1297
:100798008A1106300A128A11E8200A128A110830D2
:1007A800FD007D157D08FB0004300310FB0CFF3EA7
:1007B800031DD92B7B080F390A128A11E8200A1267
:1007C8008A117D080F390A128A11E8200A128A1143
:1007D80000300A128A11E8200A128A1101300A121E
:1007E8008A11E8200A128A110800F200721CFD2BF7
:1007F800FE2B132C831203135E08840083175F1CDF
:1008080083130130F00061080739013E0D2C0310F5
:10081800F00DFF3E031D0B2C70088004282C83125A
:1008280003135E08840083175F1C83130130F000F4
:1008380061080739013E222C0310F00DFF3E031D0D
:10084800202C7008FF3A8005F21C2B2C2C2C422CF3
:100858005E08840083175F1C83130130F000610C6D
:10086800F100F10C710C0739013E3C2C0310F00D1E
:10087800FF3E031D3A2C70088004582C5E08840043
:1008880083175F1C83130130F000610CF100F10C39
:10089800710C0739013E522C0310F00DFF3E031D69
:1008A800502C7008FF3A8005721D5B2C5C2C6F2C55
:1008B8005E08840083175F1C83130130F000620810
:1008C8000739013E692C0310F00DFF3E031D672C0C
:1008D80070088004822C5E08840083175F1C8313D1
:1008E8000130F00062080739013E7C2C0310F00D3E
:1008F800FF3E031D7A2C7008FF3A8005F21D852CF7
:10090800862C9C2C5E08840083175F1C831301309F
:10091800F000620CF100F10C710C0739013E962CC5
:100928000310F00DFF3E031D942C70088004B22CB8
:100938005E08840083175F1C83130130F000620C8B
:10094800F100F10C710C0739013EAC2C0310F00DCD
:10095800FF3E031DAA2C7008FF3A80050800831289
:1009680003133A0884008313000884000A128A15C6
:100978000A200A128A11253A031DC32CC42C6B2D98
:100988003A08840001308007E301E4010030E70001
:10099800FF30E500FF30E600C201E82CE7143A0812
:1009A800840001308007E82C0130C200E82C3A08A6
:1009B8008400000884000A128A150A200A128A1183
:1009C800303A0319D22CD82C42080319EC2CED2C00
:1009D800DB2C3A08F6003B08F7000A128A1142207D
:1009E8000A128A11770883120313E4007608E300D9
:1009F800E41FFF2C002D062D6714E309E409E30A20
:100A08000319E40A3A08840083130008C300430862
:100A180084000A128A150A200A128A11753A031DDF
:100A2800162D172D432D3B0884000008FF000230C7
:100A380080077F0884000008BE00840A0008BF0001
:100A48003A0884004308013E8000382D3808AF007A
:100A58003908B0003F08B2003E08B1000A128A11F6
:100A6800A3210A128A11842D430884000A128A15C8
:100A78000A200A128A11753A03192A2D432D3A08B9
:100A88008400000884000A128A150A200A128A11B2
:100A9800253A031D502D512D632D3A08840001304D
:100AA80080072530F0000030F1003808F2003908DE
:100AB800F3000A128A11B3220A128A11842D8312B2
:100AC80003133A088400013083138007842D3A0801
:100AD8008400000884000A128A150A200A128A1162
:100AE800BC00BD013C08F0003D08F1003808F200E8
:100AF8003908F3000A128A11B3220A128A11632DE7
:100B080008000A128A152F260A128A11FF30831646
:100B1800031386008113FF309500B03084008312E0
:100B28000313680883138000840A69088000840A14
:100B38006A088000840A6B088000840A6C088000B8
:100B4800763084008316031330088000840A310845
:100B58008000840A32088000840A33088000840AEE
:100B6800340880000A128A114D230A128A1183164A
:100B78000313C3010130BC008312031306080139B3
:100B880083160313BB003C03031DCB2DCC2DFD2D79
:100B98003B08031DD02DD12DFD2D273083120313C3
:100BA800DD00F430DC00DC0BD72DDD0BD72D000089
:100BB800831203130618E12DE22DED2D0130831663
:100BC8000313C30703304302031CEB2DEC2DED2D5B
:100BD800C3018312061CF12DF22DED2D273083124F
:100BE8000313DD00F430DC00DC0BF82DDD0BF82DF1
:100BF8000000831203130608013983160313BC008F
:100C08000A128A153D260A128A11710883160313DF
:100C1800C2007008C10000300A128A11E8200A12C6
:100C28008A1101300A128A11E8200A128A11083042
:100C38000A128A11E8200A128A1100300A128A114F
:100C4800E8200A128A11831603134308031D2D2E68
:100C58002E2E252F003083120313A3000030A2008C
:100C68000330A100FF30A000831603134108F000F1
:100C78004208F100F201F3010030F7000030F600FD
:100C8800C330F5005030F4000A128A1568270A129A
:100C98008A11730883120313A7007208A60071084B
:100CA800A5007008A4000A128A113D210A128A11AF
:100CB80083120313230883160313C000831203133C
:100CC800220883160313BF00831203132108831617
:100CD8000313BE0083120313200883160313BD00F9
:100CE800003083120313A3000030A2002730A100B4
:100CF8001030A00083160313400883120313A700C3
:100D0800831603133F0883120313A60083160313E5
:100D18003E0883120313A500831603133D088312AC
:100D28000313A4000A128A113D210A128A118312A0
:100D38000313210883160313B60083120313200834
:100D480083160313B500003083120313A300003089
:100D5800A2000030A1006430A000831603134008ED
:100D6800F7003F08F6003E08F5003D08F4000030A3
:100D7800F3000030F2002730F1001030F0000A12C2
:100D88008A15AE270A128A11730883120313A70063
:100D98007208A6007108A5007008A4000A128A113A
:100DA8003D210A128A1183120313210883160313A3
:100DB800B80083120313200883160313B7002430E6
:100DC800F6008030F7000A128A15E4260A128A1102
:100DD8000C300A128A11E8200A128A1100300A120D
:100DE8008A11E8200A128A11A03083120313C9005D
:100DF8001A30CA0083160313360883120313CC0073
:100E080083160313350883120313CB0083160313C9
:100E1800380883120313CE0083160313370883128E
:100E28000313CD000A128A1571260A128A11A030FE
:100E3800F6000030F7000A128A15E4260A128A1111
:100E4800BE2F4303031D292F2A2F912F0030831211
:100E58000313A3000030A2000330A100FF30A0005C
:100E6800831603134108F0004208F100F201F30170
:100E78000030F7000030F6000030F5006430F40070
:100E88000A128A1568270A128A1173088312031333
:100E9800A7007208A6007108A5007008A4000A122D
:100EA8008A113D210A128A1183120313210883161D
:100EB8000313BA0083120313200883160313B9001F
:100EC8000E30F6008030F7000A128A15E4260A125E
:100ED8008A110C300A128A11E8200A128A1100308D
:100EE8000A128A11E8200A128A11A0308312031309
:100EF800C9002D30CA00831603133A08831203135E
:100F0800CC0083160313390883120313CB000A128B
:100F18008A1571260A128A111B2F0130F6008030BB
:100F2800F7000A128A15E4260A128A110C300A12EE
:100F38008A11E8200A128A1100300A128A11E82060
:100F48000A128A11A03083120313C9003330CA0071
:100F580083160313420883120313CC00831603136A
:100F6800410883120313CB000A128A1571260A124C
:100F78008A111B2FC33083120313DD00CC30DC0031
:100F8800DC0BC42FDD0BC42F0000C02D0A128A1100
:100F980000280A128A1105200A128A11E8000A128A
:100FA8008A1106200A128A11E9000A128A110720FA
:100FB8000A128A11EA000A128A1108200A128A11F2
:100FC800EB000A128A1109200A128A11EC00831315
:100FD800C4308400E4300A128A1527260A128A11BE
:100FE8005E30840068300A128A1527260A128A1190
:100FF80083010A128A11852DFF1B0A2883137F1883
:1010080083170008840A0319FF0A080008308A00B9
:101018000408840A820700344134443443342034B9
:101028004434693467346934743461346C343A3420
:10103800003450346F347234633465346E3474342D
:1010480061346A3465343A340034253475342E34C6
:101058002534303432347534203456340034563420
:101068006F346C34743461346A3465343A3400341F
:10107800253475342034253425340034253475342A
:02108800003432
:101C4E0064008001840A0406031900340406282E59
:101C5E000130831603178800890181308312031324
:101C6E009F008030831603139F0008003E2E3F2EE8
:101C7E000000831203139F149F18462E472E432EE7
:101C8E001E08F100831603131E08F00008008312CD
:101C9E0003134608C800602E4408B8004508B90072
:101CAE004830BA004708BB000A128A11B3240A1240
:101CBE008A1583120313480884000A128A150A2013
:101CCE000A128A15003A031D6D2E6E2E532EC40174
:101CDE00C50108004B3083120313D0004908D10010
:101CEE000030D200D301D401DA01DB015130C4003F
:101CFE000030C5004A08C6005030C7000A128A15C7
:101D0E004E260A128A158312031353084907CF0071
:101D1E004F088400831380010800F401F501701C44
:101D2E00992E9A2EA02E7208F4070318F50A73083E
:101D3E00F50701300310F20DF30DFF3E031DA12E2A
:101D4E0001300310F10CF00CFF3E031DA82E70089D
:101D5E007104031DB32EB42E962E7508F10074086F
:101D6E00F000080083120313A601A701D62E250842
:101D7E00A300A4012308F0002408F1002108F200BA
:101D8E002208F3000A128A11B3220A128A150130B0
:101D9E0083120313A6070318A70A0030A707260805
:101DAE002007A3002308840083130008A50025083C
:101DBE00031DE22EE32EBE2E0800FB01FC01092FAF
:101DCE007B087607F9007708F8000318F80AFB1F5E
:101DDE00F12EF8037808FA007A0883120313FF0035
:101DEE00790884000A128A1500200A128A150A122E
:101DFE008A1121220A128A150130FB070318FC0AE8
:101E0E000030FC077B087607F9007708F800031806
:101E1E00F80AFB1F132FF8037808FA007A088312CA
:101E2E000313FF00790884000A128A1500200A1293
:101E3E008A15003A031D242F252FE72E0800F401E2
:101E4E00F5017008710403192D2F2E2F632F013009
:101E5E00F6003A2F01300310F00DF10DFF3E031D79
:101E6E00322F0130F607F11F3D2F3E2F312F01305B
:101E7E000310F40DF50DFF3E031D3F2F7108730285
:101E8E00031D4B2F70087202031C4E2F4F2F562F1F
:101E9E007008F2027108031CF303F302741401308C
:101EAE000310F10CF00CFF3E031D572F0130F6020C
:101EBE00031D622F632F3E2F7508F1007408F0008A
:101ECE0008000030FC000030FB000030FA0000304B
:101EDE00F900701C732F742F8B2F7408F907750877
:101EEE0003110318013E03197D2FFA07760803111B
:101EFE000318013E0319842FFB07770803110318FB
:101F0E00013E03198B2FFC070130F8000310F40D6E
:101F1E00F50DF60DF70DF80B8D2F01300310F30CA8
:101F2E00F20CF10CF00CFF3E031D952F730872049A
:101F3E0071047004031DA42FA52F702F7C08F300CD
:101F4E007B08F2007A08F1007908F00008007308A7
:101F5E007204710470040319B52FB62FF72F0130D8
:101F6E00F900C42F0130F8000310F00DF10DF20D41
:101F7E00F30DF80BBB2F0130F907F31FC72FC82F36
:101F8E00B92F73087702031DD62F72087602031D30
:101F9E00D62F71087502031DD62F70087402031C0C
:101FAE00D92FDA2FE82F7008F4027108031C710F75
:101FBE00F5027208031C720FF6027308031C730FEE
:101FCE00F70201300310F30CF20CF10CF00CFF3E93
:101FDE00031DE92F0130F902031DF62FF72FC82F2D
:101FEE007708F3007608F2007508F1007408F00027
:021FFE000800D9
:04400E00F12FFF3F50
:00000001FF
