:100000000A128A11DE2F64008001840A0406031993
:1000100000340406042870087104031910281128FC
:100020003E280130F4001D2801300310F00DF10DC1
:10003000FF3E031D15280130F407F11F2028212859
:10004000142871087302031D272870087202031C0C
:100050002A282B2831287008F2027108031CF303A8
:10006000F30201300310F10CF00CFF3E031D3228A7
:100070000130F402031D3D283E2821287308F100B9
:100080007208F0000800F500831203135A08840078
:1000900083175B1C83130130F3005C080739013EB2
:1000A00053280310F30DFF3E031D512873088004ED
:1000B0007508F30004300310F30CFF3E031D5B28AA
:1000C00073080F390A128A11B4220A128A11831294
:1000D00003135A08840083175B1C83130130F30059
:1000E0005C0CF400F40C740C0739013E7928031001
:1000F000F30DFF3E031D7728730880040D30F300D5
:10010000F30B8028831203135A08840083175B1CA7
:1001100083130130F3005C0CF400F40C740C073909
:10012000013E94280310F30DFF3E031D922873082F
:10013000FF3A800575080F390A128A11B4220A1293
:100140008A11831203135A08840083175B1C8313DC
:100150000130F3005C0CF400F40C740C0739013E20
:10016000B3280310F30DFF3E031DB128730880046C
:100170000D30F300F30BBA28831203135A088400DE
:1001800083175B1C83130130F3005C0CF400F40C48
:10019000740C0739013ECE280310F30DFF3E031DFA
:1001A000CC287308FF3A8005080083120313A901C5
:1001B000A31FDB28DC28E928A009A109A209A309BB
:1001C000A00A0319A10A0319A20A0319A30A0130FC
:1001D000A900A71FEC28ED28FA28A409A509A6095B
:1001E000A709A40A0319A50A0319A60A0319A70A4D
:1001F0000130A9060030AD000030AC000030AB008B
:100200000030AA002308220421042004031909292C
:100210000A2955290130A80018290130FD000310D2
:10022000A00DA10DA20DA30DFD0B0F290130A807F4
:10023000A31F1B291C290D290130FD000310AA0D45
:10024000AB0DAC0DAD0DFD0B1E2923082702031DC0
:10025000332922082602031D332921082502031D04
:10026000332920082402031C36293729462920086F
:10027000A4022108031C210FA5022208031C220F3F
:10028000A6022308031C230FA7022A14013003101F
:10029000A30CA20CA10CA00CFF3E031D47290130AA
:1002A000A802031D542955291C2929080319592975
:1002B0005A296529AA09AB09AC09AD09AA0A03198B
:1002C000AB0A0319AC0A0319AD0A2D08A3002C08C8
:1002D000A2002B08A1002A08A000080072087304DD
:1002E0000319732974297A2972087304031D792963
:1002F0007A29812970080A128A15CD250A128A11D5
:10030000072A7208093EF40073080318013E003EF4
:10031000F500740884008317751C83130008F60029
:10032000840A0008F70076087704031998299929A8
:10033000CB297208093EF40073080318013E003E01
:10034000F500740884008317751C83130008F600F9
:10035000840A0008F7007208023EF80073080318C8
:10036000013E003EF900780884008317791C83134E
:100370000008FA00840A0008FB007B08803AFC00B1
:100380007708803A7C02031DC72976087A02031891
:10039000CA29CB29072A720884008317731C831388
:1003A0000008F400840A0008F5007208023EF60016
:1003B00073080318013E003EF70076088400831797
:1003C000771C831300087407F9007508F8000318F8
:1003D000F80A801FEC29F8037808FA0079088400ED
:1003E00083177A1C8313700880007208023EF400A1
:1003F00073080318013E003EF5007408840083175B
:10040000751C831301308007840A0318800A0800D2
:100410005A308400760883138000840A77088000AD
:10042000840A78088000840A79088000840A7A089F
:1004300080000030831203135B06031D212A053060
:100440005A06031D242A252A292A83160313850107
:10045000442A00305B06031D2F2A06305A06031D6E
:10046000322A332A372A831603138601442A00309E
:100470005B06031D3D2A07305A06031D402A412A08
:10048000B32A8316031387011A30FC00F830FB00EF
:10049000FB0B482AFC0B482A000003300A128A157D
:1004A00028270A128A110730FC007D30FB00FB0B65
:1004B000572AFC0B572A03300A128A1528270A12DA
:1004C0008A111530FC00C630FB00FB0B652AFC0BC3
:1004D000652A000003300A128A1528270A128A1199
:1004E00002300A128A1528270A128A1102300A12CB
:1004F0008A1528270A128A1108300A128A15282715
:100500000A128A1100300A128A1528270A128A1143
:1005100006300A128A1528270A128A110830FD00AF
:100520007D157D08FB0004300310FB0CFF3E031D0E
:10053000942A7B080F390A128A1528270A128A1171
:100540007D080F390A128A1528270A128A110030ED
:100550000A128A1528270A128A1101300A128A15EE
:1005600028270A128A110800F200721CB82AB92A38
:10057000CE2A831203135A08840083175B1C83134B
:100580000130F0005D080739013EC82A0310F00D64
:10059000FF3E031DC62A70088004E32A831203135A
:1005A0005A08840083175B1C83130130F0005D0838
:1005B0000739013EDD2A0310F00DFF3E031DDB2A43
:1005C0007008FF3A8005F21CE62AE72AFD2A5A083D
:1005D000840083175B1C83130130F0005D0CF10075
:1005E000F10C710C0739013EF72A0310F00DFF3EA4
:1005F000031DF52A70088004132B5A088400831702
:100600005B1C83130130F0005D0CF100F10C710CE8
:100610000739013E0D2B0310F00DFF3E031D0B2B80
:100620007008FF3A8005721D162B172B2A2B5A08CB
:10063000840083175B1C83130130F0005E080739C8
:10064000013E242B0310F00DFF3E031D222B7008EA
:1006500080043D2B5A08840083175B1C83130130F0
:10066000F0005E080739013E372B0310F00DFF3E06
:10067000031D352B7008FF3A8005F21D402B412BDE
:10068000572B5A08840083175B1C83130130F0003A
:100690005E0CF100F10C710C0739013E512B031077
:1006A000F00DFF3E031D4F2B700880046D2B5A0880
:1006B000840083175B1C83130130F0005E0CF10093
:1006C000F10C710C0739013E672B0310F00DFF3E52
:1006D000031D652B7008FF3A800508008312031381
:1006E00022088400000884000A128A1500200A12D9
:1006F0008A11253A031D7D2B7E2B182C220884009D
:1007000001308007DF01E0010030E300FF30E1004D
:10071000FF30E200220884000008AA002A088400B2
:100720000A128A1500200A128A11753A031D992BA4
:100730009A2B112C2308840083130008FF00023039
:1007400080077F0884000008A600840A0008A7002C
:10075000220884002A08013E8000062C2030AB00CD
:100760000130AB022B08CC3E84000A30F000003090
:10077000F1002708F3002608F2000A128A110B2064
:100780000A128A117008303E831380000A30F50087
:100790000030F600831203132708F8002608F7003C
:1007A0000A128A15A0260A128A11760883120313E8
:1007B000A7007508A600260827040319E02BE12BE3
:1007C000FF2B2B08031DE52BE62BB02BFF2B2B0853
:1007D000CC3E840083130008A400A5012408F00087
:1007E0002508F1002008F2002108F3000A128A11FE
:1007F0006E210A128A11013083120313AB072030D5
:100800002B06031D042C052CE72B312C2A08840011
:100810000A128A1500200A128A11753A0319AE2BA2
:10082000112C831203132208840001308007312C1D
:1008300022088400000884000A128A1500200A1287
:100840008A11A400A5012408F0002508F100200861
:10085000F2002108F3000A128A116E210A128A118D
:10086000112C0800F9007908F70002300310F70D89
:10087000FF3E031D362C0310770D403EF800043078
:100880000310F80CFF3E031D402C78080F390A12A4
:100890008A1528270A128A117908F70002300310F6
:1008A000F70DFF3E031D4F2C0310770D403E0F390F
:1008B0000A128A1528270A128A11FA01FB018312EB
:1008C00003135A08840083175B1C83130130F7005D
:1008D0005C080739013E6E2C0310F70DFF3E031D27
:1008E0006C2C770880047A087607F7007708840074
:1008F00083130008F80004300310F80CFF3E031DBA
:100900007C2C78080F390A128A11B4220A128A1133
:10091000831203135A08840083175B1C831301306E
:10092000F7005C0CF800F80C780C0739013E9A2CA3
:100930000310F70DFF3E031D982C770880040D303F
:10094000F700F70BA12C831203135A0884008317B6
:100950005B1C83130130F7005C0CF800F80C780C7A
:100960000739013EB52C0310F70DFF3E031DB32CD4
:100970007708FF3A80057A087607F7007708840041
:10098000831300080F390A128A11B4220A128A113D
:10099000831203135A08840083175B1C83130130EE
:1009A000F7005C0CF800F80C780C0739013EDA2CE3
:1009B0000310F70DFF3E031DD82C770880040D307F
:1009C000F700F70BE12C831203135A0884008317F6
:1009D0005B1C83130130F7005C0CF800F80C780CFA
:1009E0000739013EF52C0310F70DFF3E031DF32CD4
:1009F0007708FF3A80050130FA070318FB0A003038
:100A0000FB077B08803AFF0080307F02031D0A2D20
:100A100008307A02031C0D2D0E2D5F2C08300A12AF
:100A20008A1528270A128A1100300A128A152827E7
:100A30000A128A1108000A128A15CE250A128A1192
:100A4000B430840083120313450883138000840AA2
:100A500046088000840A47088000840A480880000D
:100A6000840A490880007630840083160313340812
:100A70008000840A35088000840A36088000840AD1
:100A800037088000840A380880000A128A11082278
:100A90000A128A115230F60000300A128A113224EA
:100AA0000A128A114A30F60001300A128A113224E1
:100AB0000A128A1183160313061481131514CB012D
:100AC000CA0100300A128A1528270A128A11013039
:100AD0000A128A1528270A128A1108300A128A1562
:100AE00028270A128A1100300A128A1528270A12AA
:100AF0008A1100300A128A1143200A128A11013029
:100B000083160313C300C330F0000A128A15762639
:100B10000A128A1100300A128A1528270A128A112D
:100B200001300A128A1528270A128A1108300A127F
:100B30008A1528270A128A1100300A128A152827D6
:100B40000A128A1108300A128A1528270A128A11F5
:100B50000B300A128A1528270A128A1100300A124D
:100B60008A154C260A128A11710883160313C500D0
:100B70007008C400003083120313A3000030A200E9
:100B80000330A100FF30A000831603134408F000D7
:100B90004508F100F201F3010030F7000030F600E3
:100BA000C330F5005030F4000A128A15E2260A120A
:100BB0008A11730883120313A7007208A600710834
:100BC000A5007008A4000A128A11D5200A128A1101
:100BD00083120313210883160313C0008312031327
:100BE000200883160313BF001030F5002730F600ED
:100BF0004008F8003F08F7000A128A15A0260A12DA
:100C00008A11760883160313C7007508C60064307E
:100C1000F5000030F6004008F3003F08F200103005
:100C2000F0002730F1000A128A110B200A128A11F3
:100C30007108F8007008F7000A128A15A0260A1237
:100C40008A11760883160313BA007508B900A0301C
:100C500083120313B0000130B10083160313470859
:100C600083120313B300831603134608831203137E
:100C7000B200831603133A0883120313B5008316D8
:100C80000313390883120313B4000A128A150426C9
:100C90000A128A1102308316031345020930031920
:100CA0004402031C542E552E592E46084B07CB00E8
:100CB000652E01304502F430031944020318612EF9
:100CC000622E652E46084B02CB004B080F39103EB2
:100CD000CB000F30CB050C300A128A1528270A12D8
:100CE0008A1100300A128A1528270A128A11083040
:100CF0000A128A1528270A128A110B300A128A153D
:100D000028270A128A1101300A128A154C260A1263
:100D10008A11710883160313C9007008C8000030D7
:100D200083120313A3000030A2000330A100FF30A0
:100D3000A000831603134808F0004908F100F201EF
:100D4000F3010030F7000030F600C330F5005030FA
:100D5000F4000A128A15E2260A128A117308831215
:100D60000313A7007208A6007108A5007008A4006C
:100D70000A128A11D5200A128A118312031321083C
:100D800083160313C2008312031320088316031370
:100D9000C1001030F5002730F6004208F800410885
:100DA000F7000A128A15A0260A128A1176088316FD
:100DB0000313BC007508BB006430F5000030F6007A
:100DC0004208F3004108F2001030F0002730F10033
:100DD0000A128A110B200A128A117108F800700891
:100DE000F7000A128A15A0260A128A1176088316BD
:100DF0000313BE007508BD00AA3083120313B000B0
:100E00000130B100831603133C0883120313B300AF
:100E1000831603133B0883120313B20083160313D4
:100E20003E0883120313B500831603133D08831293
:100E30000313B4000A128A1504260A128A1102301A
:100E4000831603134902093003194802031C292F92
:100E50002A2F2C2FCA01372F01304902F4300319F1
:100E600048020318342F352F372F0130CA004A08A3
:100E7000031D3B2F3C2F592F4B08803E8312031339
:100E8000C30004300310C30CFF3E031D422F430870
:100E90000F390A128A1528270A128A11831603139A
:100EA0004B08803E0F390A128A1528270A128A1128
:100EB000C02F4A03031D5D2F5E2F7B2F4B08C03EC2
:100EC00083120313C30004300310C30CFF3E031D41
:100ED000642F43080F390A128A1528270A128A112B
:100EE000831603134B08C03E0F390A128A152827B0
:100EF0000A128A11C02F02304A06031D802F812F4B
:100F00009E2F4B08943E83120313C300043003103A
:100F1000C30CFF3E031D872F43080F390A128A15A1
:100F200028270A128A11831603134B08943E0F399F
:100F30000A128A1528270A128A11C02F03304A067E
:100F4000031DA32FA42FC02F4B08D43E83120313DD
:100F5000C30004300310C30CFF3E031DAA2F430837
:100F60000F390A128A1528270A128A1183160313C9
:100F70004B08D43E0F390A128A1528270A128A1103
:100F800000300A128A1143200A128A1183160313B1
:100F90004A08F6004B080A128A157D270A128A11A0
:100FA000823083120313C400DD30C300C30BD62F7D
:100FB000C40BD62F832D0A128A11002883135A30AE
:100FC000FD000D30FE00EF30FF00453084000A12B6
:100FD0008A15E0250A128A11CC308400EC300A12FE
:100FE0008A1103200A128A115A30840065300A12CD
:100FF0008A1103200A128A1183010A128A111B2DF9
:1010000008308A000408840A8207003425347534C5
:081010002E3425347534003440
:101B9A0008000330831603178800890181308312F5
:101BAA0003139F008030831603139F0008007E08EA
:101BBA008A007F0882000A128A15DC250A128A1511
:101BCA008000840A04087D0603190034FF0A0319F9
:101BDA00FE0AE02D073400341A342C343E340E3415
:101BEA001B3415341B3415340034003400340E34DD
:101BFA001B3415341B341B3415341B340E34323069
:101C0A0083120313B7003008B8000030B900BA01D4
:101C1A00BB01C101C2013830AC000030AD0031084F
:101C2A00AE003730AF000A128A1527260A128A1523
:101C3A00831203133A083007B60036088400831368
:101C4A0080010800831203132E08FD003B2E831225
:101C5A0003132C08A0002D08A1007D30A2002F0834
:101C6A00A3000A128A116E230A128A157D088400BB
:101C7A000A128A1500200A128A15003A031D462EF6
:101C8A00472E2C2E83120313AC01AD010800F40079
:101C9A004E2E4F2E00008330831203139F057408C3
:101CAA00F20001300310F20DFF3E031D572E031000
:101CBA00720D9F040330F3009730F200F20B632E8B
:101CCA00F30B632E682E831203139F149F186E2E34
:101CDA006F2E6B2E1E08F100831603131E08F000E8
:101CEA0008008312031306080139F3007008840000
:101CFA0083130003031D822E832E9A2E7308031D5D
:101D0A00872E882E9A2E2730F200F530F100F10B3B
:101D1A008C2EF20B8C2E8312031364080319962E51
:101D2A00982E0130992E0030E40070088400730860
:101D3A00831380000800F901FA0175087604031973
:101D4A00A72EA82EDD2E0130FB00B42E0130031081
:101D5A00F50DF60DFF3E031DAC2E0130FB07F61FF5
:101D6A00B72EB82EAB2E01300310F90DFA0DFF3E37
:101D7A00031DB92E76087802031DC52E7508770251
:101D8A00031CC82EC92ED02E7508F7027608031C2C
:101D9A00F803F802791401300310F60CF50CFF3E33
:101DAA00031DD12E0130FB02031DDC2EDD2EB82EC1
:101DBA007A08F6007908F50008000030FC000030C7
:101DCA00FB000030FA000030F900701CED2EEE2EF8
:101DDA00052F7408F907750803110318013E031942
:101DEA00F72EFA07760803110318013E0319FE2E8F
:101DFA00FB07770803110318013E0319052FFC0797
:101E0A000130F8000310F40DF50DF60DF70DF80B7F
:101E1A00072F01300310F30CF20CF10CF00CFF3E0B
:101E2A00031D0F2F7308720471047004031D1E2F03
:101E3A001F2FEA2E7C08F3007B08F2007A08F100D3
:101E4A007908F0000800F500831203135A08840089
:101E5A0083175B1C83130130F3005C080739013ECA
:101E6A00382F0310F30DFF3E031D362F7308FF3A78
:101E7A00800575080A128A11B4220A128A15831279
:101E8A0003135A08840083175B1C83130130F30081
:101E9A005C0CF400F40C740C0739013E562F031045
:101EAA00F30DFF3E031D542F730880040630F4001F
:101EBA003030F300F30B5F2FF40B5F2F0000831217
:101ECA0003135A08840083175B1C83130130F30041
:101EDA005C0CF400F40C740C0739013E762F0310E5
:101EEA00F30DFF3E031D742F7308FF3A80050800A7
:101EFA00F8007608031D822F832F9C2F7808803ED6
:101F0A00F70004300310F70CFF3E031D872F7708F4
:101F1A000F390A128A1528270A128A157808803E6C
:101F2A000F390A128A1528270A128A15F72F7603FB
:101F3A00031DA02FA12FBA2F7808C03EF700043046
:101F4A000310F70CFF3E031DA52F77080F390A125D
:101F5A008A1528270A128A157808C03E0F390A12EC
:101F6A008A1528270A128A15F72F02307606031DCA
:101F7A00BF2FC02FD92F7808943EF70004300310E2
:101F8A00F70CFF3E031DC42F77080F390A128A1572
:101F9A0028270A128A157808943E0F390A128A15D8
:101FAA0028270A128A15F72F03307606031DDE2F1B
:101FBA00DF2FF72F7808D43EF70004300310F70C10
:101FCA00FF3E031DE32F77080F390A128A152827C7
:101FDA000A128A157808D43E0F390A128A15282758
:101FEA000A128A158312031364080A128A114320FB
:061FFA000A128A1508001E
:04400E00F12FFF3F50
:00000001FF
