:060000000A128A110C280F
:10000800FE00030EF0000A08F1000A128A15762F86
:100018000A128A110F28831603130A128A15D52685
:100028000A128A11E5000A128A15D6260A128A11BE
:10003800E6000A128A15D7260A128A11E7000A1260
:100048008A15D8260A128A11E8000A128A15D926B2
:100058000A128A11E9008313A0308400CA300A12F8
:100068008A15DA260A128A11613084006E300A1263
:100078008A15DA260A128A11FB0183010A128A11EB
:1000880045280A128A15E2260A128A110A128A15C6
:10009800ED260A128A11D4308400831603136508EA
:1000A80083138000840A66088000840A6708800039
:1000B800840A68088000840A690880002030840067
:1000C80054088000840A55088000840A5608800075
:1000D800840A57088000840A580880000A128A1186
:1000E80037230A128A1100300A128A1183260A124B
:1000F8008A1101300A128A1183260A128A110830DD
:100108000A128A1183260A128A1100300A128A11E9
:1001180083260A128A111530F8008030F9000A1275
:100128008A1177270A128A110C300A128A1183263B
:100138000A128A110B300A128A1183260A128A11AE
:100148001E30F8008030F9000A128A1177270A1247
:100158008A110C300A128A1183260A128A110B306E
:100168000A128A1183260A128A113C30F2000030E2
:10017800F300831203136D08F5006C08F4000A12EB
:100188008A11BD270A128A11730883160313E00027
:100198007208DF003C30F2000030F30083120313D2
:1001A8006D08F5006C08F4000A128A15C8270A12AF
:1001B8008A11730883160313E2007208E100C03045
:1001C80083120313CE000B30CF008316031360088D
:1001D80083120313D100831603135F0883120313DA
:1001E800D00083160313620883120313D300831607
:1001F8000313610883120313D2000A128A152E27EB
:100208000A128A11C030F8000030F9000A128A1167
:1002180077270A128A1108300A128A1183260A12CD
:100228008A1100300A128A1183260A128A110130B3
:10023800F8008030F9000A128A1177270A128A1109
:1002480008300A128A1183260A128A1109300A1202
:100258008A1183260A128A110A128A15FA260A12A4
:100268008A11730883160313DA007208D900003064
:1002780083120313A7000030A6000330A500FF3047
:10028800A400831603135908F2005A08F300F40176
:10029800F5010030F9000030F800C330F7005030A5
:1002A800F6000A128A112B270A128A11750883127E
:1002B8000313AB007408AA007308A9007208A80009
:1002C8000A128A1183240A128A1183120313250839
:1002D80083160313E40083120313240883160313FD
:1002E800E3001030F2002730F3006408F5006308DB
:1002F800F4000A128A11BD270A128A11730883169C
:100308000313DC007208DB001030F2002730F30022
:100318006408F5006308F4000A128A15C8270A124F
:100328008A11730883160313DE007208DD00CA30D1
:1003380083120313CE002430CF00831603135C0806
:1003480083120313D100831603135B08831203136C
:10035800D000831603135E0883120313D300831699
:1003680003135D0883120313D2000A128A152E277D
:100378000A128A11CA30F8000030F9000A128A11EC
:1003880077270A128A11AD280A128A110C28F4005C
:10039800741CCF29D029E52983120313610884002E
:1003A8008317621C83130130F20064080739013E89
:1003B800DF290310F20DFF3E031DDD2972088004BA
:1003C800FA2983120313610884008317621C8313BC
:1003D8000130F20064080739013EF4290310F20DD8
:1003E800FF3E031DF2297208FF3A8005F41CFD291F
:1003F800FE29142A610884008317621C83130130C4
:10040800F200640CF300F30C730C0739013E0E2A5A
:100418000310F20DFF3E031D0C2A720880042A2ADD
:10042800610884008317621C83130130F200640C96
:10043800F300F30C730C0739013E242A0310F20D64
:10044800FF3E031D222A7208FF3A8005741D2D2ADB
:100458002E2A412A610884008317621C8313013005
:10046800F20065080739013E3B2A0310F20DFF3EF2
:10047800031D392A72088004542A610884008317EE
:10048800621C83130130F20065080739013E4E2AC9
:100498000310F20DFF3E031D4C2A7208FF3A800537
:1004A800F41D572A582A6E2A610884008317621C93
:1004B80083130130F200650CF300F30C730C073959
:1004C800013E682A0310F20DFF3E031D662A7208DA
:1004D8008004842A610884008317621C8313013016
:1004E800F200650CF300F30C730C0739013E7E2A09
:1004F8000310F20DFF3E031D7C2A7208FF3A8005A7
:100508000800831203133F08840083130008840043
:100518000A128A150A200A128A11253A031D952AF9
:10052800962A1D2B3F08840001308007E601E70169
:100538000030FB00FF30E800FF30E900C701BA2AAD
:10054800FB143F08840001308007BA2A0130C70035
:10055800BA2A3F088400000884000A128A150A2073
:100568000A128A11303A0319A42AAA2A4708031939
:10057800BE2ABF2AAD2A3F08F8004008F9000A122F
:100588008A112C260A128A11790883120313E700AC
:100598007808E600E71FD12AD22AD82A7B14E60970
:1005A800E709E60A0319E70A3F08840083130008ED
:1005B800C800480884000A128A150A200A128A11FB
:1005C800753A031DE82AE92A152B4008840000081B
:1005D800FF00023080077F0884000008C300840AF7
:1005E8000008C4003F0884004808013E80000A2B28
:1005F8003D08B4003E08B5004408B7004308B600FB
:100608000A128A11AE250A128A11362B480884006C
:100618000A128A150A200A128A11753A0319FC2A45
:10062800152B831203133F088400013083138007BE
:10063800362B3F088400000884000A128A150A2015
:100648000A128A11C100C2014108F2004208F300EF
:100658003D08F4003E08F5000A128A11E3230A1245
:100668008A11152B080061308400831203132008B7
:1006780083138000840A21088000840A22088000ED
:10068800840A23088000840A240880000030620657
:10069800031D502B05306106031D532B542B582B7B
:1006A800831603138501732B00306206031D5E2B2E
:1006B80006306106031D612B622B662B831603131C
:1006C8008601732B00306206031D6C2B0730610610
:1006D800031D6F2B702BE22B8316031387011A302F
:1006E800F900F830F800F80B772BF90B772B00009E
:1006F80003300A128A1183260A128A110730F90078
:100708007D30F800F80B862BF90B862B03300A1284
:100718008A1183260A128A111530F900C630F800AA
:10072800F80B942BF90B942B000003300A128A1152
:1007380083260A128A1102300A128A1183260A12A3
:100748008A1102300A128A1183260A128A11083085
:100758000A128A1183260A128A1100300A128A1193
:1007680083260A128A1106300A128A1183260A126F
:100778008A110830FA007A157A08F8000430031054
:10078800F80CFF3E031DC32B78080F390A128A1193
:1007980083260A128A117A080F390A128A118326C7
:1007A8000A128A1100300A128A1183260A128A1143
:1007B80001300A128A1183260A128A110800740865
:1007C80075040319E82BE92BEF2B74087504031D36
:1007D800EE2BEF2BF62B72080A128A11FF270A124A
:1007E8008A11822C7408093E83120313A00075082D
:1007F8000318013E003EA100200884008317211C35
:1008080083130008A200840A0008A3002208230416
:1008180003190F2C102C422C7408093EA0007508EF
:100828000318013E003EA100200884008317211C04
:1008380083130008A200840A0008A3007408023E7B
:10084800A40075080318013E003EA5002408840092
:100858008317251C83130008A600840A0008A70034
:100868002708803AA8002308803A2802031D3E2C56
:10087800220826020318412C422C822C740884007A
:100888008317751C8313000883120313A000840ABE
:100898000008A1007408023EA20075080318013E72
:1008A800003EA300220884008317231C831300083A
:1008B8002007A5002108A4000318A40A801F652C9E
:1008C800A403831203132408A600250884008317B1
:1008D800261C8313720880007408023EA000750865
:1008E8000318013E003EA100200884008317211C44
:1008F800831301308007840A0318800A08008312D2
:100908000313AE01A71F892C8A2C972CA409A509CB
:10091800A609A709A40A0319A50A0319A60A03190F
:10092800A70A0130AE00AB1F9A2C9B2CA82CA80953
:10093800A909AA09AB09A80A0319A90A0319AA0A45
:100948000319AB0A0130AE060030B2000030B10026
:100958000030B0000030AF00270826042504240426
:100968000319B72CB82C032D0130AD00C62C01306B
:10097800AC000310A40DA50DA60DA70DAC0BBD2C46
:100988000130AD07A71FC92CCA2CBB2C0130AC0005
:100998000310AF0DB00DB10DB20DAC0BCC2C270868
:1009A8002B02031DE12C26082A02031DE12C250831
:1009B8002902031DE12C24082802031CE42CE52C41
:1009C800F42C2408A8022508031C250FA9022608D0
:1009D800031C260FAA022708031C270FAB022F149B
:1009E80001300310A70CA60CA50CA40CFF3E031D98
:1009F800F52C0130AD02031D022D032DCA2C2E0843
:100A08000319072D082D132DAF09B009B109B20933
:100A1800AF0A0319B00A0319B10A0319B20A320856
:100A2800A7003108A6003008A5002F08A400080078
:100A3800F70083120313610884008317621C831371
:100A48000130F50063080739013E2C2D0310F50D20
:100A5800FF3E031D2A2D750880047708F500043031
:100A68000310F50CFF3E031D342D75080F390A12CB
:100A78008A11CB210A128A11831203136108840098
:100A88008317621C83130130F500630CF600F60C23
:100A9800760C0739013E522D0310F50DFF3E031D5C
:100AA800502D750880040D30F500F50B592D831273
:100AB8000313610884008317621C83130130F50057
:100AC800630CF600F60C760C0739013E6D2D031009
:100AD800F50DFF3E031D6B2D7508FF3A800577085D
:100AE8000F390A128A11CB210A128A1183120313B1
:100AF800610884008317621C83130130F500630CBE
:100B0800F600F60C760C0739013E8C2D0310F50D16
:100B1800FF3E031D8A2D750880040D30F500F50B86
:100B2800932D83120313610884008317621C8313B7
:100B38000130F500630CF600F60C760C0739013E1F
:100B4800A72D0310F50DFF3E031DA52D7508FF3ACF
:100B580080050800013083120313B8006708BA0043
:100B68006608B9001F30BB000030BC0083160313B1
:100B7800BF01F62DFF3083120313BB070318BC0A0D
:100B8800FF30BC073B08A03E84000A30F20000306A
:100B9800F3003708F5003608F4000A128A15C8274A
:100BA8000A128A117208303E8313800083120313DD
:100BB800B801FF30B9070318BA0AFF30BA070A307C
:100BC800F2000030F3003708F5003608F4000A1286
:100BD8008A11BD270A128A11730883120313B700FA
:100BE8007208B60083123B083C040319FC2DFD2D46
:100BF800192E36083704031D022E032EBE2D380881
:100C0800031D072E082EBE2D3A08803AFF008030BB
:100C18007F02031D112E01303902031C142E152EDC
:100C2800192EFB18182E192EBE2D83120313340803
:100C3800AC003508AD003B08A03EAE003A08B00055
:100C48003908AF000A128A11D8260A128A11080038
:100C580083120313A101A2017808840083130008FA
:100C680084000A128A150A200A128A112A3A031DD8
:100C78003E2E3F2E6D2E78088400013080077908BB
:100C880084000008FF00023080077F088400000805
:100C9800A100840A0008A2007E2E2208F300210881
:100CA800F2000A30F4000030F5000A128A155127C4
:100CB8000A128A118312031320087207A100003058
:100CC800031801307307A2007808840001308313E9
:100CD800800778088400000884000A128A150A2010
:100CE8000A128A11D03EA0000A302002031C7D2E71
:100CF8007E2E512E2208F9002108F8000800F7007E
:100D080083120313610884008317621C8313013064
:100D1800F50063080739013E932E0310F50DFF3ED9
:100D2800031D912E7508FF3A800577080A128A116B
:100D3800CB210A128A1183120313610884008317D6
:100D4800621C83130130F500630CF600F60C760C78
:100D58000739013EB12E0310F50DFF3E031DAF2EDE
:100D6800750880040630F6003030F500F50BBA2E11
:100D7800F60BBA2E00008312031361088400831750
:100D8800621C83130130F500630CF600F60C760C38
:100D98000739013ED12E0310F50DFF3E031DCF2E5E
:100DA8007508FF3A800508007B1CDB2EDC2EE92E37
:100DB800831203132E08F6002C08F7002D08F800FC
:100DC8000A128A159D270A128A1183120313B01F6B
:100DD800EE2EEF2EF12EAF01B001B201B3010B2FB1
:100DE8002030F2000030F300831203132C08F400C3
:100DF8002D08F5000A128A11E3230A128A1101301C
:100E080083120313B2070318B30A0030B307330879
:100E1800803AB1003008803A3102031D152F2F089F
:100E28003202031C182F192FF42E7B181C2F1D2F8C
:100E38002A2F831203132E08F6002C08F7002D081A
:100E4800F8000A128A159D270A128A110800003034
:100E580083120313A3000030A2000030A100003069
:100E6800A000721C382F392F522F760883120313D3
:100E7800A007770803110318013E0319442FA1079F
:100E8800780803110318013E03194B2FA2077908AC
:100E980003110318013E0319522FA3070130FA006A
:100EA8000310F60DF70DF80DF90DFA0B542F01305C
:100EB8000310F50CF40CF30CF20CFF3E031D5C2F31
:100EC8007508740473047204031D6B2F6C2F352F7F
:100ED800831203132308F5002208F4002108F30005
:100EE8002008F200080083120313A301A401A02F15
:100EF80023087807A1007908A0000318A00AA31FF7
:100F0800862FA003831203132008A2002208FF00E3
:100F1800210884000A128A1500200A128A110A126E
:100F28008A111C250A128A11013083120313A307A0
:100F38000318A40A0030A40723087807A100790839
:100F4800A0000318A00AA31FAA2FA003831203134B
:100F58002008A2002208FF00210884000A128A152E
:100F680000200A128A11003A031DBB2FBC2F7C2FC8
:100F78000800F601F701720873040319C42FC52F7E
:100F8800FA2F0130F800D12F01300310F20DF30DC4
:100F9800FF3E031DC92F0130F807F31FD42FD52FAB
:100FA800C82F01300310F60DF70DFF3E031DD62F95
:100FB80073087502031DE22F72087402031CE52FE3
:100FC800E62FED2F7208F4027308031CF503F502EF
:100FD800761401300310F30CF20CFF3E031DEE2FC4
:100FE8000130F802031DF92FFA2FD52F7708F300E7
:100FF8007608F20008000800FF1B0A2883137F18F0
:1010080083170008840A0319FF0A080008308A00B9
:101018000408840A8207003456346F346C347434FC
:1010280061346A3465343A34203400342534303439
:10103800323475343A34253430343234753400342B
:101048005434693465346D3470346F343A34203430
:101058000034303430343A343034303400342534C9
:0A10680075342E342534753400343D
:101DAA00073400341A342C343E3464008001840A27
:101DBA000406031900340406DB2E073083160313C6
:101DCA008100D9308312031381008B168B17080008
:101DDA0001308316031788008130831203139F0092
:101DEA008030831603139F000800FB2EFC2E000090
:101DFA00831203139F149F18032F042F002F1E080A
:101E0A00F300831603131E08F2000800831203135B
:101E1A004B08CD001D2F4908BD004A08BE004D30B1
:101E2A00BF004C08C0000A128A1185220A128A15BC
:101E3A00831203134D0884000A128A150A200A1213
:101E4A008A15003A031D2A2F2B2F102FC901CA0108
:101E5A000800503083120313D5004E08D600003014
:101E6A00D700D801D901DF01E0015630C90000309E
:101E7A00CA004F08CB005530CC000A128A150B272E
:101E8A000A128A158312031358084E07D4005408FD
:101E9A008400831380010800F601F701721C562F93
:101EAA00572F5D2F7408F6070318F70A7508F70706
:101EBA0001300310F40DF50DFF3E031D5E2F0130B6
:101ECA000310F30CF20CFF3E031D652F7208730416
:101EDA00031D702F712F532F7708F3007608F20035
:101EEA0008000B1D792F7A2F962F013083120313C6
:101EFA00EA070318EB0A0030EB0700306B02653083
:101F0A0003196A02031C8A2F8B2F932F0130EC07C7
:101F1A000318ED0A0030ED07EA01EB01D930810020
:101F2A000B1171088A00700E8300FE0E7E0E0900E6
:101F3A0083120313AA01AB01BA2F2908F900FA0187
:101F4A007908F2007A08F3007708F4007808F500B7
:101F5A000A128A11E3230A128A1501308312031323
:101F6A00AA070318AB0A0030AB072A087607F9005C
:101F7A007908840083130008A9002908031DC62FC5
:101F8A00C72FA22F0800720873040319CD2FCE2F72
:101F9A00FB2F0130F600DA2F01300310F20DF30D9A
:101FAA00FF3E031DD22F0130F607F31FDD2FDE2F70
:101FBA00D12F73087502031DE42F72087402031CE3
:101FCA00E72FE82FEE2F7208F4027308031CF503BB
:101FDA00F50201300310F30CF20CFF3E031DEF2F44
:101FEA000130F602031DFA2FFB2FDE2F7508F300CE
:061FFA007408F20008006B
:04400E00F12FFF3F50
:00000001FF
