:060000000A128A11C02F54
:100EE8003F3406345B344F3466346D347D34073414
:100EF8007F346F347E088A007F0882000A128A11C4
:100F08007E270A128A118000840A04087D060319C4
:100F18000034FF0A0319FE0A822F8316031388017F
:100F2800FF308600831203138801FD017D08703E9F
:100F38008400000888000330FC008A30FB0055302C
:100F4800FA00FA0BA52FFB0BA52FFC0BA52FAC2F36
:100F580083120313061CB12FB22FB42FFD019A2F51
:100F68000130FD070A307D02031CBB2FBC2F9A2FCE
:100F7800B22F0A128A1100280A128A1174270A123B
:100F88008A11F0000A128A1175270A128A11F100D3
:100F98000A128A1176270A128A11F2000A128A1195
:100FA80077270A128A11F3000A128A1178270A127F
:100FB8008A11F4000A128A1179270A128A11F50097
:100FC8000A128A117A270A128A11F6000A128A115D
:100FD8007B270A128A11F7000A128A117C270A1243
:100FE8008A11F8000A128A117D270A128A11F9005B
:080FF80083010A128A11912FF6
:04400E00F12FFF3F50
:00000001FF
