:060000000A128A11EE2F26
:100F34003F3406345B344F3466346D347D340734C7
:100F44007F346F3477347C3439345E34793471349B
:100F540000347E088A007F0882000A128A11AB27B7
:100F64000A128A118000840A04087D0603190034D9
:100F7400FF0A0319FE0AAF2F831603138801FF30FB
:100F84008600831203138801F3017308203E840052
:100F94008313000888000330F2008A30F1005530D2
:100FA400F000F00BD32FF10BD32FF20BD32FDA2F4A
:100FB40083120313061CDF2FE02FE22FF301C72F48
:100FC4000130F30710307302031CE92FEA2FC72FF7
:100FD400E02F0A128A11002883133130FD000730F4
:100FE400FE009A30FF00203084000A128A11AF27D5
:0C0FF4000A128A1183010A128A11BE2F12
:04400E00F12FFF3F50
:00000001FF
