:100000000A128A11E92F00308A000408840A820744
:10001000003450344F345234463441342034523456
:100020004534533450344534543445342034413409
:1000300020344D344934003420344D344934203494
:1000400041344D34543447344F3420342034213437
:10005000003443344F344C344F345234203444341D
:10006000453420344C34413400344C344C34413425
:0C0070004E34543441343F34203400340A
:100612007E088A007F0882000A128A1109230A12C0
:100622008A118000840A04087D0603190034FF0A37
:100632000319FE0A0D2BF701F801322B7708760712
:1006420084000A128A1103200A128A110A128A11DC
:10065200BA230A128A110130F7070318F80A003088
:10066200F8077708760784000A128A1103200A1213
:100672008A11003A031D3E2B3F2B1F2B0800073423
:1006820000341A342C343E34043400340434043438
:1006920004340434043400340434003404340434A0
:1006A2000C3411340E34003400340A340A34003469
:1006B2001F341134003400340E341B3415341B340F
:1006C2001B3415341B340E34F500831203134F0808
:1006D20084008317501C83130130F300510807393B
:1006E200013E752B0310F30DFF3E031D732B7308A0
:1006F200FF3A800575080A128A11F8240A128A1133
:10070200831203134F0884008317501C8313013094
:10071200F300510CF400F40C740C0739013E932BD6
:100722000310F30DFF3E031D912B73088004063066
:10073200F4003030F300F30B9C2BF40B9C2B0000E5
:10074200831203134F0884008317501C8313013054
:10075200F300510CF400F40C740C0739013EB32B76
:100762000310F30DFF3E031DB12B7308FF3A800502
:100772000800F500831203134F0884008317501CEE
:1007820083130130F30051080739013ECA2B0310CD
:10079200F30DFF3E031DC82B730880047508F30098
:1007A20004300310F30CFF3E031DD22B73080F39E4
:1007B2000A128A11F8240A128A11831203134F08AB
:1007C20084008317501C83130130F300510CF40092
:1007D200F40C740C0739013EF02B0310F30DFF3EAD
:1007E200031DEE2B730880040D30F300F30BF72B7F
:1007F200831203134F0884008317501C83130130A4
:10080200F300510CF400F40C740C0739013E0B2C6C
:100812000310F30DFF3E031D092C7308FF3A8005F8
:1008220075080F390A128A11F8240A128A118312E2
:1008320003134F0884008317501C83130130F30005
:10084200510CF400F40C740C0739013E2A2C0310ED
:10085200F30DFF3E031D282C730880040D30F300B6
:10086200F30B312C831203134F0884008317501C9F
:1008720083130130F300510CF400F40C740C0739AB
:10088200013E452C0310F30DFF3E031D432C73085C
:10089200FF3A800508004F308400760883138000F9
:1008A200840A77088000840A78088000840A79081C
:1008B2008000840A7A0880000030831203135006F5
:1008C200031D652C05304F06031D682C692C6D2C09
:1008D200831603138501882C00305006031D732CE8
:1008E20006304F06031D762C772C7B2C83160313C0
:1008F2008601882C00305006031D812C07304F06DC
:10090200031D842C852CF72C8316031387011A30C0
:10091200FC00F830FB00FB0B8C2CFC0B8C2C000039
:1009220003300A128A1165230A128A110730FC0069
:100932007D30FB00FB0B9B2CFC0B9B2C03300A1223
:100942008A1165230A128A111530FC00C630FB0099
:10095200FB0BA92CFC0BA92C000003300A128A11F4
:1009620065230A128A1102300A128A1165230A12B9
:100972008A1102300A128A1165230A128A1108307A
:100982000A128A1165230A128A1100300A128A1188
:1009920065230A128A1106300A128A1165230A1285
:1009A2008A110830FD007D157D08FB00043003101C
:1009B200FB0CFF3E031DD82C7B080F390A128A114B
:1009C20065230A128A117D080F390A128A116523DA
:1009D2000A128A1100300A128A1165230A128A1138
:1009E20001300A128A1165230A128A110800F200E4
:1009F200721CFC2CFD2C122D831203134F08840051
:100A02008317501C83130130F00052080739013E4E
:100A12000C2D0310F00DFF3E031D0A2D70088004FB
:100A2200272D831203134F0884008317501C83134E
:100A32000130F00052080739013E212D0310F00D5C
:100A4200FF3E031D1F2D7008FF3A8005F21C2A2D60
:100A52002B2D412D4F0884008317501C8313013026
:100A6200F000520CF100F10C710C0739013E3B2DE4
:100A72000310F00DFF3E031D392D70088004572D21
:100A82004F0884008317501C83130130F000520C6E
:100A9200F100F10C710C0739013E512D0310F00DDC
:100AA200FF3E031D4F2D7008FF3A8005721D5A2D1F
:100AB2005B2D6E2D4F0884008317501C8313013069
:100AC200F00053080739013E682D0310F00DFF3E78
:100AD200031D662D70088004812D4F088400831742
:100AE200501C83130130F00053080739013E7B2D5F
:100AF2000310F00DFF3E031D792D7008FF3A8005AB
:100B0200F21D842D852D9B2D4F0884008317501CC8
:100B120083130130F000530CF100F10C710C073912
:100B2200013E952D0310F00DFF3E031D932D70081D
:100B32008004B12D4F0884008317501C83130130A9
:100B4200F000530CF100F10C710C0739013EAB2D92
:100B52000310F00DFF3E031DA92D7008FF3A80051A
:100B62000800F9007908F70002300310F70DFF3E84
:100B7200031DB62D0310770D403EF800043003101C
:100B8200F80CFF3E031DC02D78080F390A128A1196
:100B920065230A128A117908F70002300310F70D53
:100BA200FF3E031DCF2D0310770D403E0F390A1271
:100BB2008A1165230A128A11FA01FB0183120313B7
:100BC2004F0884008317501C83130130F70051082B
:100BD2000739013EEE2D0310F70DFF3E031DEC2DEC
:100BE200770880047A087607F70077088400831371
:100BF2000008F80004300310F80CFF3E031DFC2D22
:100C020078080F390A128A11F8240A128A118312FB
:100C120003134F0884008317501C83130130F7001D
:100C2200510CF800F80C780C0739013E1A2E03100B
:100C3200F70DFF3E031D182E770880040D30F700D4
:100C4200F70B212E831203134F0884008317501CC5
:100C520083130130F700510CF800F80C780C0739B7
:100C6200013E352E0310F70DFF3E031D332E77088C
:100C7200FF3A80057A087607F70077088400831325
:100C820000080F390A128A11F8240A128A118312F3
:100C920003134F0884008317501C83130130F7009D
:100CA200510CF800F80C780C0739013E5A2E03104B
:100CB200F70DFF3E031D582E770880040D30F70014
:100CC200F70B612E831203134F0884008317501C05
:100CD20083130130F700510CF800F80C780C073937
:100CE200013E752E0310F70DFF3E031D732E77088C
:100CF200FF3A80050130FA070318FB0A0030FB07B0
:100D02007B08803AFF0080307F02031D8A2E083064
:100D12007A02031C8D2E8E2EDF2D08300A128A11C4
:100D220065230A128A1100300A128A1165230A12F7
:100D32008A11080083160317880189018316031399
:100D420001087F3981004730840083120313200891
:100D520083138000840A21088000840A220880000C
:100D6200840A23088000840A2408800076308400E4
:100D720047088000840A48088000840A49088000E5
:100D8200840A4A088000840A4B0880000A128A11E9
:100D92004C240A128A113D30F60000300A128A11E0
:100DA200B2250A128A113530F60001300A128A1170
:100DB200B2250A128A112D30F60002300A128A1167
:100DC200B2250A128A112530F60003300A128A115E
:100DD200B2250A128A1183160313061481131514FD
:100DE200013083120313CD000130CC0000300A120F
:100DF2008A1165230A128A1101300A128A116523A7
:100E02000A128A1108300A128A1165230A128A11FB
:100E120000300A128A1165230A128A1102300A125C
:100E22008A11BA230A128A112130F6000A128A1193
:100E32001C230A128A110C300A128A1165230A1223
:100E42008A1104300A128A1165230A128A112D307E
:100E5200F6000A128A111C230A128A1100300A12A1
:100E62008A11BA230A128A1183120313060801395E
:100E7200CE004C03031D3E2F3F2FD72F4E08031DDC
:100E8200432F442FD72F273083120313C600F43089
:100E9200C500C50B4A2FC60B4A2F0000831203134D
:100EA2004D03031D552F562F972F0230CD000030D2
:100EB2000A128A1165230A128A1101300A128A1152
:100EC20065230A128A1108300A128A1165230A124E
:100ED2008A1100300A128A1165230A128A1103301C
:100EE2000A128A11BA230A128A110130F6000A1272
:100EF2008A111C230A128A110C300A128A116523E4
:100F02000A128A1100300A128A1165230A128A1102
:100F12001430F6000A128A111C230A128A110130B7
:100F22000A128A11BA230A128A11D72F0130CD0070
:100F320000300A128A1165230A128A1101300A123C
:100F42008A1165230A128A1108300A128A1165234E
:100F52000A128A1100300A128A1165230A128A11B2
:100F620002300A128A11BA230A128A112130F600BB
:100F72000A128A111C230A128A110C300A128A11CF
:100F820065230A128A1104300A128A1165230A1291
:100F92008A112D30F6000A128A111C230A128A11B4
:100FA20000300A128A11BA230A128A118312031319
:100FB2004E08CC000D3083120313C600FB30C5006F
:100FC200C50BE12FC60BE12F352F0A128A1100281B
:100FD20083134530FD000330FE004030FF00203017
:100FE20084000A128A110D230A128A11CF01D0013C
:0E0FF200D101D201D30183010A128A119B2E74
:04400E00F12FFF3F50
:00000001FF
