:060000000A128A11EE2F26
:100BFA003F3406345B344F3466346D347D34073405
:100C0A007F346F347E088A007F0882000A128A11B4
:100C1A0007260A128A118000840A04087D0603192D
:100C2A000034FF0A0319FE0A0B2EFA000A30F000FC
:100C3A000030F1007A08F800F9017808F200790822
:100C4A00F3000A128A11A3260A128A117008203E9A
:100C5A008400831300088312031387000A30F0000C
:100C6A000030F1007A08F800F9017808F2007908F2
:100C7A00F3000A128A114C260A128A117008203EC1
:100C8A008400831300088312031388000800F50107
:100C9A00F31F502E512E582EF209F309F20A0319A6
:100CAA00F30A0130F500F11F5B2E5C2E612EF0096C
:100CBA00F109F00A0319F10A700871040319662E82
:100CCA00672E942E0130F400732E01300310F00DBC
:100CDA00F10DFF3E031D6B2E0130F407F11F762E36
:100CEA00772E6A2E71087302031D7D2E7008720218
:100CFA00031C802E812E872E7008F2027108031CB5
:100D0A00F303F30201300310F10CF00CFF3E031D54
:100D1A00882E0130F402031D932E942E772E750827
:100D2A000319982E992E9E2EF209F309F20A031935
:100D3A00F30A7308F1007208F0000800F501F11FC8
:100D4A00A72EA82EAF2EF009F109F00A0319F10A0D
:100D5A000130F500F31FB22EB32EBA2EF209F309B1
:100D6A00F20A0319F30A0130F506F601F7017008D1
:100D7A0071040319C12EC22EF72E0130F400CE2EB3
:100D8A0001300310F00DF10DFF3E031DC62E013098
:100D9A00F407F11FD12ED22EC52E01300310F60D05
:100DAA00F70DFF3E031DD32E71087302031DDF2EBC
:100DBA0070087202031CE22EE32EEA2E7008F20279
:100DCA007108031CF303F302761401300310F10CCB
:100DDA00F00CFF3E031DEB2E0130F402031DF62E2C
:100DEA00F72ED22E75080319FB2EFC2E012FF609B9
:100DFA00F709F60A0319F70A7708F1007608F000EE
:100E0A000800831603178801890183160313010852
:100E1A007F398100FF30860087018801831203131E
:100E2A0087018801AB010130AA0000300A128A1139
:100E3A001A260A128A11831203130618252F262F3F
:100E4A00762F2730FC00F530FB00FB0B2A2FFC0B1A
:100E5A002A2F831203130618332F342F762F2A03CF
:100E6A00031D382F392F4E2F6430F0000030F10067
:100E7A002B08023EF200003003180130F3000A1278
:100E8A008A114C260A128A11700883120313AB00C6
:100E9A00622F6430F0000030F1002B08013EF200AE
:100EAA00003003180130F3000A128A114C260A1284
:100EBA008A11700883120313AB002B080A128A11D5
:100ECA001A260A128A1183120313061C6D2F6E2F1B
:100EDA00682F2730FC00F530FB00FB0B722FFC0B50
:100EEA00722F8312031386187B2F7C2FBA2F273079
:100EFA00FC00F530FB00FB0B802FFC0B802F8312CC
:100F0A0003138618892F8A2FBA2F2A03031D8E2FBF
:100F1A008F2F9C2F02302B020318942F952F992F75
:100F2A002B08623EAB00A62F0230AB02A62F2B087D
:100F3A00031DA02FA12FA42F6330AB00A62F0130D1
:100F4A00AB022B080A128A111A260A128A11831274
:100F5A000313861CB12FB22FAC2F2730FC00F530BB
:100F6A00FB00FB0BB62FFC0BB62F831203130619DB
:100F7A00BF2FC02F202F2730FC00F530FB00FB0BC2
:100F8A00C42FFC0BC42F831203130619CD2FCE2FA7
:100F9A00202F2A080319D22FD42F0130D52F003041
:100FAA00AA002B080A128A111A260A128A11831217
:100FBA000313061DE12FE22FDC2F2730FC00F5304A
:100FCA00FB00FB0BE62FFC0BE62F202F0A128A11DF
:100FDA00002883132A30FD000530FE00FD30FF0093
:100FEA00203084000A128A110B260A128A11830100
:060FFA000A128A11062F05
:04400E00F12FFF3F50
:00000001FF
